{
  "_format": "hh-sol-artifact-1",
  "contractName": "TouristId",
  "sourceName": "contracts/TouristId.sol",
  "abi": [
    {
      "inputs": [],
      "stateMutability": "nonpayable",
      "type": "constructor"
    },
    {
      "inputs": [],
      "name": "AccessControlBadConfirmation",
      "type": "error"
    },
    {
      "inputs": [
        {
          "internalType": "address",
          "name": "account",
          "type": "address"
        },
        {
          "internalType": "bytes32",
          "name": "neededRole",
          "type": "bytes32"
        }
      ],
      "name": "AccessControlUnauthorizedAccount",
      "type": "error"
    },
    {
      "inputs": [],
      "name": "EnforcedPause",
      "type": "error"
    },
    {
      "inputs": [],
      "name": "ExpectedPause",
      "type": "error"
    },
    {
      "anonymous": false,
      "inputs": [
        {
          "indexed": false,
          "internalType": "address",
          "name": "account",
          "type": "address"
        }
      ],
      "name": "Paused",
      "type": "event"
    },
    {
      "anonymous": false,
      "inputs": [
        {
          "indexed": true,
          "internalType": "bytes32",
          "name": "role",
          "type": "bytes32"
        },
        {
          "indexed": true,
          "internalType": "bytes32",
          "name": "previousAdminRole",
          "type": "bytes32"
        },
        {
          "indexed": true,
          "internalType": "bytes32",
          "name": "newAdminRole",
          "type": "bytes32"
        }
      ],
      "name": "RoleAdminChanged",
      "type": "event"
    },
    {
      "anonymous": false,
      "inputs": [
        {
          "indexed": true,
          "internalType": "bytes32",
          "name": "role",
          "type": "bytes32"
        },
        {
          "indexed": true,
          "internalType": "address",
          "name": "account",
          "type": "address"
        },
        {
          "indexed": true,
          "internalType": "address",
          "name": "sender",
          "type": "address"
        }
      ],
      "name": "RoleGranted",
      "type": "event"
    },
    {
      "anonymous": false,
      "inputs": [
        {
          "indexed": true,
          "internalType": "bytes32",
          "name": "role",
          "type": "bytes32"
        },
        {
          "indexed": true,
          "internalType": "address",
          "name": "account",
          "type": "address"
        },
        {
          "indexed": true,
          "internalType": "address",
          "name": "sender",
          "type": "address"
        }
      ],
      "name": "RoleRevoked",
      "type": "event"
    },
    {
      "anonymous": false,
      "inputs": [
        {
          "indexed": true,
          "internalType": "uint256",
          "name": "touristId",
          "type": "uint256"
        },
        {
          "indexed": true,
          "internalType": "address",
          "name": "walletAddress",
          "type": "address"
        },
        {
          "indexed": false,
          "internalType": "uint256",
          "name": "visitEndDate",
          "type": "uint256"
        }
      ],
      "name": "TouristIdIssued",
      "type": "event"
    },
    {
      "anonymous": false,
      "inputs": [
        {
          "indexed": true,
          "internalType": "uint256",
          "name": "touristId",
          "type": "uint256"
        }
      ],
      "name": "TouristIdRevoked",
      "type": "event"
    },
    {
      "anonymous": false,
      "inputs": [
        {
          "indexed": false,
          "internalType": "address",
          "name": "account",
          "type": "address"
        }
      ],
      "name": "Unpaused",
      "type": "event"
    },
    {
      "inputs": [],
      "name": "ADMIN_ROLE",
      "outputs": [
        {
          "internalType": "bytes32",
          "name": "",
          "type": "bytes32"
        }
      ],
      "stateMutability": "view",
      "type": "function"
    },
    {
      "inputs": [],
      "name": "DEFAULT_ADMIN_ROLE",
      "outputs": [
        {
          "internalType": "bytes32",
          "name": "",
          "type": "bytes32"
        }
      ],
      "stateMutability": "view",
      "type": "function"
    },
    {
      "inputs": [
        {
          "internalType": "bytes32",
          "name": "role",
          "type": "bytes32"
        }
      ],
      "name": "getRoleAdmin",
      "outputs": [
        {
          "internalType": "bytes32",
          "name": "",
          "type": "bytes32"
        }
      ],
      "stateMutability": "view",
      "type": "function"
    },
    {
      "inputs": [
        {
          "internalType": "uint256",
          "name": "touristId",
          "type": "uint256"
        }
      ],
      "name": "getTouristInfo",
      "outputs": [
        {
          "components": [
            {
              "internalType": "bytes32",
              "name": "kycHash",
              "type": "bytes32"
            },
            {
              "internalType": "bytes32",
              "name": "itineraryHash",
              "type": "bytes32"
            },
            {
              "internalType": "string",
              "name": "emergencyContact",
              "type": "string"
            },
            {
              "internalType": "uint256",
              "name": "visitStartDate",
              "type": "uint256"
            },
            {
              "internalType": "uint256",
              "name": "visitEndDate",
              "type": "uint256"
            },
            {
              "internalType": "address",
              "name": "walletAddress",
              "type": "address"
            },
            {
              "internalType": "bool",
              "name": "isValid",
              "type": "bool"
            }
          ],
          "internalType": "struct TouristId.Tourist",
          "name": "",
          "type": "tuple"
        }
      ],
      "stateMutability": "view",
      "type": "function"
    },
    {
      "inputs": [
        {
          "internalType": "bytes32",
          "name": "role",
          "type": "bytes32"
        },
        {
          "internalType": "address",
          "name": "account",
          "type": "address"
        }
      ],
      "name": "grantRole",
      "outputs": [],
      "stateMutability": "nonpayable",
      "type": "function"
    },
    {
      "inputs": [
        {
          "internalType": "bytes32",
          "name": "role",
          "type": "bytes32"
        },
        {
          "internalType": "address",
          "name": "account",
          "type": "address"
        }
      ],
      "name": "hasRole",
      "outputs": [
        {
          "internalType": "bool",
          "name": "",
          "type": "bool"
        }
      ],
      "stateMutability": "view",
      "type": "function"
    },
    {
      "inputs": [
        {
          "internalType": "address",
          "name": "touristWallet",
          "type": "address"
        },
        {
          "internalType": "bytes32",
          "name": "kycHash",
          "type": "bytes32"
        },
        {
          "internalType": "bytes32",
          "name": "itineraryHash",
          "type": "bytes32"
        },
        {
          "internalType": "string",
          "name": "emergencyContact",
          "type": "string"
        },
        {
          "internalType": "uint256",
          "name": "visitDurationDays",
          "type": "uint256"
        }
      ],
      "name": "issueTouristId",
      "outputs": [],
      "stateMutability": "nonpayable",
      "type": "function"
    },
    {
      "inputs": [],
      "name": "pause",
      "outputs": [],
      "stateMutability": "nonpayable",
      "type": "function"
    },
    {
      "inputs": [],
      "name": "paused",
      "outputs": [
        {
          "internalType": "bool",
          "name": "",
          "type": "bool"
        }
      ],
      "stateMutability": "view",
      "type": "function"
    },
    {
      "inputs": [
        {
          "internalType": "bytes32",
          "name": "role",
          "type": "bytes32"
        },
        {
          "internalType": "address",
          "name": "callerConfirmation",
          "type": "address"
        }
      ],
      "name": "renounceRole",
      "outputs": [],
      "stateMutability": "nonpayable",
      "type": "function"
    },
    {
      "inputs": [
        {
          "internalType": "uint256",
          "name": "touristId",
          "type": "uint256"
        }
      ],
      "name": "revokeId",
      "outputs": [],
      "stateMutability": "nonpayable",
      "type": "function"
    },
    {
      "inputs": [
        {
          "internalType": "bytes32",
          "name": "role",
          "type": "bytes32"
        },
        {
          "internalType": "address",
          "name": "account",
          "type": "address"
        }
      ],
      "name": "revokeRole",
      "outputs": [],
      "stateMutability": "nonpayable",
      "type": "function"
    },
    {
      "inputs": [
        {
          "internalType": "bytes4",
          "name": "interfaceId",
          "type": "bytes4"
        }
      ],
      "name": "supportsInterface",
      "outputs": [
        {
          "internalType": "bool",
          "name": "",
          "type": "bool"
        }
      ],
      "stateMutability": "view",
      "type": "function"
    },
    {
      "inputs": [
        {
          "internalType": "uint256",
          "name": "",
          "type": "uint256"
        }
      ],
      "name": "tourists",
      "outputs": [
        {
          "internalType": "bytes32",
          "name": "kycHash",
          "type": "bytes32"
        },
        {
          "internalType": "bytes32",
          "name": "itineraryHash",
          "type": "bytes32"
        },
        {
          "internalType": "string",
          "name": "emergencyContact",
          "type": "string"
        },
        {
          "internalType": "uint256",
          "name": "visitStartDate",
          "type": "uint256"
        },
        {
          "internalType": "uint256",
          "name": "visitEndDate",
          "type": "uint256"
        },
        {
          "internalType": "address",
          "name": "walletAddress",
          "type": "address"
        },
        {
          "internalType": "bool",
          "name": "isValid",
          "type": "bool"
        }
      ],
      "stateMutability": "view",
      "type": "function"
    },
    {
      "inputs": [],
      "name": "unpause",
      "outputs": [],
      "stateMutability": "nonpayable",
      "type": "function"
    }
  ],
  "bytecode": "0x608060405234801561001057600080fd5b506100246000801b3361006360201b60201c565b506100557fa49807205ce4d355092ef5a8a18f56e8913cf4a201fbe287825b095693c217753361006360201b60201c565b5060016003819055506101d2565b6000610075838361016060201b60201c565b61015557600160008085815260200190815260200160002060000160008473ffffffffffffffffffffffffffffffffffffffff1673ffffffffffffffffffffffffffffffffffffffff16815260200190815260200160002060006101000a81548160ff0219169083151502179055506100f26101ca60201b60201c565b73ffffffffffffffffffffffffffffffffffffffff168273ffffffffffffffffffffffffffffffffffffffff16847f2f8788117e7eff1d82e926ec794901d17c78024a50270940304540a733656f0d60405160405180910390a46001905061015a565b600090505b92915050565b600080600084815260200190815260200160002060000160008373ffffffffffffffffffffffffffffffffffffffff1673ffffffffffffffffffffffffffffffffffffffff16815260200190815260200160002060009054906101000a900460ff16905092915050565b600033905090565b611c5f806101e16000396000f3fe608060405234801561001057600080fd5b50600436106100f55760003560e01c80635c975abb11610097578063a217fddf11610066578063a217fddf1461025e578063ce101b2f1461027c578063d547741f146102b2578063fd2e15e0146102ce576100f5565b80635c975abb146101e857806375b238fc146102065780638456cb591461022457806391d148541461022e576100f5565b806336568abe116100d357806336568abe146101765780633f4ba83a146101925780634aa14af61461019c57806357a663ed146101cc576100f5565b806301ffc9a7146100fa578063248a9ca31461012a5780632f2ff15d1461015a575b600080fd5b610114600480360381019061010f919061107c565b6102ea565b60405161012191906110c4565b60405180910390f35b610144600480360381019061013f9190611115565b610364565b6040516101519190611151565b60405180910390f35b610174600480360381019061016f91906111ca565b610383565b005b610190600480360381019061018b91906111ca565b6103a5565b005b61019a610420565b005b6101b660048036038101906101b19190611240565b610455565b6040516101c391906113d5565b60405180910390f35b6101e660048036038101906101e19190611240565b610610565b005b6101f06106fd565b6040516101fd91906110c4565b60405180910390f35b61020e610714565b60405161021b9190611151565b60405180910390f35b61022c610738565b005b610248600480360381019061024391906111ca565b61076d565b60405161025591906110c4565b60405180910390f35b6102666107d7565b6040516102739190611151565b60405180910390f35b61029660048036038101906102919190611240565b6107de565b6040516102a9979695949392919061145f565b60405180910390f35b6102cc60048036038101906102c791906111ca565b6108d5565b005b6102e860048036038101906102e3919061153a565b6108f7565b005b60007f7965db0b000000000000000000000000000000000000000000000000000000007bffffffffffffffffffffffffffffffffffffffffffffffffffffffff1916827bffffffffffffffffffffffffffffffffffffffffffffffffffffffff1916148061035d575061035c82610bbf565b5b9050919050565b6000806000838152602001908152602001600020600101549050919050565b61038c82610364565b61039581610c29565b61039f8383610c3d565b50505050565b6103ad610d2e565b73ffffffffffffffffffffffffffffffffffffffff168173ffffffffffffffffffffffffffffffffffffffff1614610411576040517f6697b23200000000000000000000000000000000000000000000000000000000815260040160405180910390fd5b61041b8282610d36565b505050565b7fa49807205ce4d355092ef5a8a18f56e8913cf4a201fbe287825b095693c2177561044a81610c29565b610452610e28565b50565b61045d610fbf565b6002600083815260200190815260200160002060050160149054906101000a900460ff166104c0576040517f08c379a00000000000000000000000000000000000000000000000000000000081526004016104b790611646565b60405180910390fd5b600260008381526020019081526020016000206040518060e0016040529081600082015481526020016001820154815260200160028201805461050290611695565b80601f016020809104026020016040519081016040528092919081815260200182805461052e90611695565b801561057b5780601f106105505761010080835404028352916020019161057b565b820191906000526020600020905b81548152906001019060200180831161055e57829003601f168201915b5050505050815260200160038201548152602001600482015481526020016005820160009054906101000a900473ffffffffffffffffffffffffffffffffffffffff1673ffffffffffffffffffffffffffffffffffffffff1673ffffffffffffffffffffffffffffffffffffffff1681526020016005820160149054906101000a900460ff1615151515815250509050919050565b7fa49807205ce4d355092ef5a8a18f56e8913cf4a201fbe287825b095693c2177561063a81610c29565b6002600083815260200190815260200160002060050160149054906101000a900460ff1661069d576040517f08c379a000000000000000000000000000000000000000000000000000000000815260040161069490611738565b60405180910390fd5b60006002600084815260200190815260200160002060050160146101000a81548160ff021916908315150217905550817fbeee355e5102083b28219c6ba30176c0a4367037d00a22867d903ca8a4a4bb0060405160405180910390a25050565b6000600160009054906101000a900460ff16905090565b7fa49807205ce4d355092ef5a8a18f56e8913cf4a201fbe287825b095693c2177581565b7fa49807205ce4d355092ef5a8a18f56e8913cf4a201fbe287825b095693c2177561076281610c29565b61076a610e8b565b50565b600080600084815260200190815260200160002060000160008373ffffffffffffffffffffffffffffffffffffffff1673ffffffffffffffffffffffffffffffffffffffff16815260200190815260200160002060009054906101000a900460ff16905092915050565b6000801b81565b600260205280600052604060002060009150905080600001549080600101549080600201805461080d90611695565b80601f016020809104026020016040519081016040528092919081815260200182805461083990611695565b80156108865780601f1061085b57610100808354040283529160200191610886565b820191906000526020600020905b81548152906001019060200180831161086957829003601f168201915b5050505050908060030154908060040154908060050160009054906101000a900473ffffffffffffffffffffffffffffffffffffffff16908060050160149054906101000a900460ff16905087565b6108de82610364565b6108e781610c29565b6108f18383610d36565b50505050565b7fa49807205ce4d355092ef5a8a18f56e8913cf4a201fbe287825b095693c2177561092181610c29565b610929610eed565b600073ffffffffffffffffffffffffffffffffffffffff168773ffffffffffffffffffffffffffffffffffffffff1603610998576040517f08c379a000000000000000000000000000000000000000000000000000000000815260040161098f906117a4565b60405180910390fd5b600082116109db576040517f08c379a00000000000000000000000000000000000000000000000000000000081526004016109d290611810565b60405180910390fd5b6000429050600062015180846109f1919061185f565b826109fc91906118a1565b90506040518060e0016040528089815260200188815260200187878080601f016020809104026020016040519081016040528093929190818152602001838380828437600081840152601f19601f8201169050808301925050505050505081526020018381526020018281526020018a73ffffffffffffffffffffffffffffffffffffffff1681526020016001151581525060026000600354815260200190815260200160002060008201518160000155602082015181600101556040820151816002019081610acc9190611ab0565b50606082015181600301556080820151816004015560a08201518160050160006101000a81548173ffffffffffffffffffffffffffffffffffffffff021916908373ffffffffffffffffffffffffffffffffffffffff16021790555060c08201518160050160146101000a81548160ff0219169083151502179055509050508873ffffffffffffffffffffffffffffffffffffffff166003547fb20bc4d1d98a1ff6dcd2c2f2d391e9b730b11a043d18ea65e207159c60473cb783604051610b949190611b82565b60405180910390a360036000815480929190610baf90611b9d565b9190505550505050505050505050565b60007f01ffc9a7000000000000000000000000000000000000000000000000000000007bffffffffffffffffffffffffffffffffffffffffffffffffffffffff1916827bffffffffffffffffffffffffffffffffffffffffffffffffffffffff1916149050919050565b610c3a81610c35610d2e565b610f2e565b50565b6000610c49838361076d565b610d2357600160008085815260200190815260200160002060000160008473ffffffffffffffffffffffffffffffffffffffff1673ffffffffffffffffffffffffffffffffffffffff16815260200190815260200160002060006101000a81548160ff021916908315150217905550610cc0610d2e565b73ffffffffffffffffffffffffffffffffffffffff168273ffffffffffffffffffffffffffffffffffffffff16847f2f8788117e7eff1d82e926ec794901d17c78024a50270940304540a733656f0d60405160405180910390a460019050610d28565b600090505b92915050565b600033905090565b6000610d42838361076d565b15610e1d57600080600085815260200190815260200160002060000160008473ffffffffffffffffffffffffffffffffffffffff1673ffffffffffffffffffffffffffffffffffffffff16815260200190815260200160002060006101000a81548160ff021916908315150217905550610dba610d2e565b73ffffffffffffffffffffffffffffffffffffffff168273ffffffffffffffffffffffffffffffffffffffff16847ff6391f5c32d9c69d2a47ea670b442974b53935d1edc7fd64eb21e047a839171b60405160405180910390a460019050610e22565b600090505b92915050565b610e30610f7f565b6000600160006101000a81548160ff0219169083151502179055507f5db9ee0a495bf2e6ff9c91a7834c1ba4fdd244a5e8aa4e537bd38aeae4b073aa610e74610d2e565b604051610e819190611be5565b60405180910390a1565b610e93610eed565b60018060006101000a81548160ff0219169083151502179055507f62e78cea01bee320cd4e420270b5ea74000d11b0c9f74754ebdbfc544b05a258610ed6610d2e565b604051610ee39190611be5565b60405180910390a1565b610ef56106fd565b15610f2c576040517fd93c066500000000000000000000000000000000000000000000000000000000815260040160405180910390fd5b565b610f38828261076d565b610f7b5780826040517fe2517d3f000000000000000000000000000000000000000000000000000000008152600401610f72929190611c00565b60405180910390fd5b5050565b610f876106fd565b610fbd576040517f8dfc202b00000000000000000000000000000000000000000000000000000000815260040160405180910390fd5b565b6040518060e001604052806000801916815260200160008019168152602001606081526020016000815260200160008152602001600073ffffffffffffffffffffffffffffffffffffffff1681526020016000151581525090565b600080fd5b600080fd5b60007fffffffff0000000000000000000000000000000000000000000000000000000082169050919050565b61105981611024565b811461106457600080fd5b50565b60008135905061107681611050565b92915050565b6000602082840312156110925761109161101a565b5b60006110a084828501611067565b91505092915050565b60008115159050919050565b6110be816110a9565b82525050565b60006020820190506110d960008301846110b5565b92915050565b6000819050919050565b6110f2816110df565b81146110fd57600080fd5b50565b60008135905061110f816110e9565b92915050565b60006020828403121561112b5761112a61101a565b5b600061113984828501611100565b91505092915050565b61114b816110df565b82525050565b60006020820190506111666000830184611142565b92915050565b600073ffffffffffffffffffffffffffffffffffffffff82169050919050565b60006111978261116c565b9050919050565b6111a78161118c565b81146111b257600080fd5b50565b6000813590506111c48161119e565b92915050565b600080604083850312156111e1576111e061101a565b5b60006111ef85828601611100565b9250506020611200858286016111b5565b9150509250929050565b6000819050919050565b61121d8161120a565b811461122857600080fd5b50565b60008135905061123a81611214565b92915050565b6000602082840312156112565761125561101a565b5b60006112648482850161122b565b91505092915050565b611276816110df565b82525050565b600081519050919050565b600082825260208201905092915050565b60005b838110156112b657808201518184015260208101905061129b565b60008484015250505050565b6000601f19601f8301169050919050565b60006112de8261127c565b6112e88185611287565b93506112f8818560208601611298565b611301816112c2565b840191505092915050565b6113158161120a565b82525050565b6113248161118c565b82525050565b611333816110a9565b82525050565b600060e083016000830151611351600086018261126d565b506020830151611364602086018261126d565b506040830151848203604086015261137c82826112d3565b9150506060830151611391606086018261130c565b5060808301516113a4608086018261130c565b5060a08301516113b760a086018261131b565b5060c08301516113ca60c086018261132a565b508091505092915050565b600060208201905081810360008301526113ef8184611339565b905092915050565b600082825260208201905092915050565b60006114138261127c565b61141d81856113f7565b935061142d818560208601611298565b611436816112c2565b840191505092915050565b61144a8161120a565b82525050565b6114598161118c565b82525050565b600060e082019050611474600083018a611142565b6114816020830189611142565b81810360408301526114938188611408565b90506114a26060830187611441565b6114af6080830186611441565b6114bc60a0830185611450565b6114c960c08301846110b5565b98975050505050505050565b600080fd5b600080fd5b600080fd5b60008083601f8401126114fa576114f96114d5565b5b8235905067ffffffffffffffff811115611517576115166114da565b5b602083019150836001820283011115611533576115326114df565b5b9250929050565b60008060008060008060a087890312156115575761155661101a565b5b600061156589828a016111b5565b965050602061157689828a01611100565b955050604061158789828a01611100565b945050606087013567ffffffffffffffff8111156115a8576115a761101f565b5b6115b489828a016114e4565b935093505060806115c789828a0161122b565b9150509295509295509295565b7f546f7572697374204944206973206e6f742076616c6964206f7220646f65732060008201527f6e6f742065786973740000000000000000000000000000000000000000000000602082015250565b60006116306029836113f7565b915061163b826115d4565b604082019050919050565b6000602082019050818103600083015261165f81611623565b9050919050565b7f4e487b7100000000000000000000000000000000000000000000000000000000600052602260045260246000fd5b600060028204905060018216806116ad57607f821691505b6020821081036116c0576116bf611666565b5b50919050565b7f546f757269737420494420697320616c726561647920696e76616c6964206f7260008201527f20646f6573206e6f742065786973740000000000000000000000000000000000602082015250565b6000611722602f836113f7565b915061172d826116c6565b604082019050919050565b6000602082019050818103600083015261175181611715565b9050919050565b7f496e76616c69642077616c6c6574206164647265737300000000000000000000600082015250565b600061178e6016836113f7565b915061179982611758565b602082019050919050565b600060208201905081810360008301526117bd81611781565b9050919050565b7f5669736974206475726174696f6e206d75737420626520706f73697469766500600082015250565b60006117fa601f836113f7565b9150611805826117c4565b602082019050919050565b60006020820190508181036000830152611829816117ed565b9050919050565b7f4e487b7100000000000000000000000000000000000000000000000000000000600052601160045260246000fd5b600061186a8261120a565b91506118758361120a565b92508282026118838161120a565b9150828204841483151761189a57611899611830565b5b5092915050565b60006118ac8261120a565b91506118b78361120a565b92508282019050808211156118cf576118ce611830565b5b92915050565b7f4e487b7100000000000000000000000000000000000000000000000000000000600052604160045260246000fd5b60008190508160005260206000209050919050565b60006020601f8301049050919050565b600082821b905092915050565b6000600883026119667fffffffffffffffffffffffffffffffffffffffffffffffffffffffffffffffff82611929565b6119708683611929565b95508019841693508086168417925050509392505050565b6000819050919050565b60006119ad6119a86119a38461120a565b611988565b61120a565b9050919050565b6000819050919050565b6119c783611992565b6119db6119d3826119b4565b848454611936565b825550505050565b600090565b6119f06119e3565b6119fb8184846119be565b505050565b5b81811015611a1f57611a146000826119e8565b600181019050611a01565b5050565b601f821115611a6457611a3581611904565b611a3e84611919565b81016020851015611a4d578190505b611a61611a5985611919565b830182611a00565b50505b505050565b600082821c905092915050565b6000611a8760001984600802611a69565b1980831691505092915050565b6000611aa08383611a76565b9150826002028217905092915050565b611ab98261127c565b67ffffffffffffffff811115611ad257611ad16118d5565b5b611adc8254611695565b611ae7828285611a23565b600060209050601f831160018114611b1a5760008415611b08578287015190505b611b128582611a94565b865550611b7a565b601f198416611b2886611904565b60005b82811015611b5057848901518255600182019150602085019450602081019050611b2b565b86831015611b6d5784890151611b69601f891682611a76565b8355505b6001600288020188555050505b505050505050565b6000602082019050611b976000830184611441565b92915050565b6000611ba88261120a565b91507fffffffffffffffffffffffffffffffffffffffffffffffffffffffffffffffff8203611bda57611bd9611830565b5b600182019050919050565b6000602082019050611bfa6000830184611450565b92915050565b6000604082019050611c156000830185611450565b611c226020830184611142565b939250505056fea2646970667358221220f317f8b73ab8ec43f21988a82a993ccadfc71694fb034ab49a14deb0dd8a7a5e64736f6c634300081c0033",
  "linkReferences": {},
  "deployedLinkReferences": {}
}